{
  "contractName": "Exchange",
  "abi": [
    {
      "constant": true,
      "inputs": [],
      "name": "DEFAULT_ADDRESS",
      "outputs": [
        {
          "name": "",
          "type": "address"
        }
      ],
      "payable": false,
      "stateMutability": "view",
      "type": "function"
    },
    {
      "constant": true,
      "inputs": [],
      "name": "owner",
      "outputs": [
        {
          "name": "",
          "type": "address"
        }
      ],
      "payable": false,
      "stateMutability": "view",
      "type": "function"
    },
    {
      "constant": true,
      "inputs": [],
      "name": "ETH_ADDRESS",
      "outputs": [
        {
          "name": "",
          "type": "address"
        }
      ],
      "payable": false,
      "stateMutability": "view",
      "type": "function"
    },
    {
      "inputs": [],
      "payable": false,
      "stateMutability": "nonpayable",
      "type": "constructor"
    },
    {
      "constant": false,
      "inputs": [
        {
          "name": "_reserve",
          "type": "address"
        },
        {
          "name": "_token",
          "type": "address"
        },
        {
          "name": "_isAdd",
          "type": "bool"
        }
      ],
      "name": "addReserve",
      "outputs": [
        {
          "name": "",
          "type": "bool"
        }
      ],
      "payable": false,
      "stateMutability": "nonpayable",
      "type": "function"
    },
    {
      "constant": false,
      "inputs": [
        {
          "name": "_srcToken",
          "type": "address"
        },
        {
          "name": "_destToken",
          "type": "address"
        },
        {
          "name": "_srcAmmount",
          "type": "uint256"
        }
      ],
      "name": "getExchangeRate",
      "outputs": [
        {
          "name": "",
          "type": "uint256"
        }
      ],
      "payable": false,
      "stateMutability": "nonpayable",
      "type": "function"
    },
    {
      "constant": false,
      "inputs": [
        {
          "name": "_srcToken",
          "type": "address"
        },
        {
          "name": "_destToken",
          "type": "address"
        },
        {
          "name": "_srcAmmount",
          "type": "uint256"
        }
      ],
      "name": "exchangeToken",
      "outputs": [
        {
          "name": "",
          "type": "uint256"
        }
      ],
      "payable": true,
      "stateMutability": "payable",
      "type": "function"
    }
  ],
  "bytecode": "0x6060604052341561000f57600080fd5b336000806101000a81548173ffffffffffffffffffffffffffffffffffffffff021916908373ffffffffffffffffffffffffffffffffffffffff160217905550610f728061005e6000396000f30060606040523615610076576000357c0100000000000000000000000000000000000000000000000000000000900463ffffffff1680636b441d8a1461007b5780638d337dd9146100f05780638da5cb5b146101455780639e3f3d481461019a578063a734f06e14610215578063f25a104f1461026a575b600080fd5b341561008657600080fd5b6100da600480803573ffffffffffffffffffffffffffffffffffffffff1690602001909190803573ffffffffffffffffffffffffffffffffffffffff169060200190919080359060200190919050506102d4565b6040518082815260200191505060405180910390f35b34156100fb57600080fd5b61010361078e565b604051808273ffffffffffffffffffffffffffffffffffffffff1673ffffffffffffffffffffffffffffffffffffffff16815260200191505060405180910390f35b341561015057600080fd5b610158610793565b604051808273ffffffffffffffffffffffffffffffffffffffff1673ffffffffffffffffffffffffffffffffffffffff16815260200191505060405180910390f35b34156101a557600080fd5b6101fb600480803573ffffffffffffffffffffffffffffffffffffffff1690602001909190803573ffffffffffffffffffffffffffffffffffffffff1690602001909190803515159060200190919050506107b8565b604051808215151515815260200191505060405180910390f35b341561022057600080fd5b6102286108b5565b604051808273ffffffffffffffffffffffffffffffffffffffff1673ffffffffffffffffffffffffffffffffffffffff16815260200191505060405180910390f35b6102be600480803573ffffffffffffffffffffffffffffffffffffffff1690602001909190803573ffffffffffffffffffffffffffffffffffffffff169060200190919080359060200190919050506108cd565b6040518082815260200191505060405180910390f35b600080600080600073eeeeeeeeeeeeeeeeeeeeeeeeeeeeeeeeeeeeeeee73ffffffffffffffffffffffffffffffffffffffff168873ffffffffffffffffffffffffffffffffffffffff16141561042c57600260008873ffffffffffffffffffffffffffffffffffffffff1673ffffffffffffffffffffffffffffffffffffffff16815260200190815260200160002060009054906101000a900473ffffffffffffffffffffffffffffffffffffffff1693508373ffffffffffffffffffffffffffffffffffffffff166377ed0ad66001886000604051602001526040518363ffffffff167c0100000000000000000000000000000000000000000000000000000000028152600401808315151515815260200182815260200192505050602060405180830381600087803b151561040a57600080fd5b6102c65a03f1151561041b57600080fd5b505050604051805190509450610783565b73eeeeeeeeeeeeeeeeeeeeeeeeeeeeeeeeeeeeeeee73ffffffffffffffffffffffffffffffffffffffff168773ffffffffffffffffffffffffffffffffffffffff16141561057c57600260008973ffffffffffffffffffffffffffffffffffffffff1673ffffffffffffffffffffffffffffffffffffffff16815260200190815260200160002060009054906101000a900473ffffffffffffffffffffffffffffffffffffffff1693508373ffffffffffffffffffffffffffffffffffffffff166377ed0ad66000886000604051602001526040518363ffffffff167c0100000000000000000000000000000000000000000000000000000000028152600401808315151515815260200182815260200192505050602060405180830381600087803b151561055a57600080fd5b6102c65a03f1151561056b57600080fd5b505050604051805190509450610783565b600260008973ffffffffffffffffffffffffffffffffffffffff1673ffffffffffffffffffffffffffffffffffffffff16815260200190815260200160002060009054906101000a900473ffffffffffffffffffffffffffffffffffffffff1692508273ffffffffffffffffffffffffffffffffffffffff166377ed0ad66000886000604051602001526040518363ffffffff167c0100000000000000000000000000000000000000000000000000000000028152600401808315151515815260200182815260200192505050602060405180830381600087803b151561066257600080fd5b6102c65a03f1151561067357600080fd5b505050604051805190509150600260008873ffffffffffffffffffffffffffffffffffffffff1673ffffffffffffffffffffffffffffffffffffffff16815260200190815260200160002060009054906101000a900473ffffffffffffffffffffffffffffffffffffffff1690508073ffffffffffffffffffffffffffffffffffffffff166377ed0ad66001846000604051602001526040518363ffffffff167c0100000000000000000000000000000000000000000000000000000000028152600401808315151515815260200182815260200192505050602060405180830381600087803b151561076557600080fd5b6102c65a03f1151561077657600080fd5b5050506040518051905094505b505050509392505050565b600081565b6000809054906101000a900473ffffffffffffffffffffffffffffffffffffffff1681565b600081156108475783600260008573ffffffffffffffffffffffffffffffffffffffff1673ffffffffffffffffffffffffffffffffffffffff16815260200190815260200160002060006101000a81548173ffffffffffffffffffffffffffffffffffffffff021916908373ffffffffffffffffffffffffffffffffffffffff160217905550600190506108ae565b600260008473ffffffffffffffffffffffffffffffffffffffff1673ffffffffffffffffffffffffffffffffffffffff16815260200190815260200160002060006101000a81549073ffffffffffffffffffffffffffffffffffffffff0219169055600190505b9392505050565b73eeeeeeeeeeeeeeeeeeeeeeeeeeeeeeeeeeeeeeee81565b60008060008060008060008073eeeeeeeeeeeeeeeeeeeeeeeeeeeeeeeeeeeeeeee73ffffffffffffffffffffffffffffffffffffffff168b73ffffffffffffffffffffffffffffffffffffffff161415610a4a57348914151561092f57600080fd5b899550600260008b73ffffffffffffffffffffffffffffffffffffffff1673ffffffffffffffffffffffffffffffffffffffff16815260200190815260200160002060009054906101000a900473ffffffffffffffffffffffffffffffffffffffff1693508373ffffffffffffffffffffffffffffffffffffffff1663874fc5f83460018c6040518463ffffffff167c01000000000000000000000000000000000000000000000000000000000281526004018083151515158152602001828152602001925050506000604051808303818588803b1515610a0f57600080fd5b6125ee5a03f11515610a2057600080fd5b50505050610a4373eeeeeeeeeeeeeeeeeeeeeeeeeeeeeeeeeeeeeeee8b8b6102d4565b9150610f38565b73eeeeeeeeeeeeeeeeeeeeeeeeeeeeeeeeeeeeeeee73ffffffffffffffffffffffffffffffffffffffff168a73ffffffffffffffffffffffffffffffffffffffff161415610dae578a9650600260008c73ffffffffffffffffffffffffffffffffffffffff1673ffffffffffffffffffffffffffffffffffffffff16815260200190815260200160002060009054906101000a900473ffffffffffffffffffffffffffffffffffffffff1694508673ffffffffffffffffffffffffffffffffffffffff166323b872dd33308c6000604051602001526040518463ffffffff167c0100000000000000000000000000000000000000000000000000000000028152600401808473ffffffffffffffffffffffffffffffffffffffff1673ffffffffffffffffffffffffffffffffffffffff1681526020018373ffffffffffffffffffffffffffffffffffffffff1673ffffffffffffffffffffffffffffffffffffffff1681526020018281526020019350505050602060405180830381600087803b1515610bd657600080fd5b6102c65a03f11515610be757600080fd5b50505060405180519050508673ffffffffffffffffffffffffffffffffffffffff1663095ea7b3868b6000604051602001526040518363ffffffff167c0100000000000000000000000000000000000000000000000000000000028152600401808373ffffffffffffffffffffffffffffffffffffffff1673ffffffffffffffffffffffffffffffffffffffff16815260200182815260200192505050602060405180830381600087803b1515610c9d57600080fd5b6102c65a03f11515610cae57600080fd5b50505060405180519050508473ffffffffffffffffffffffffffffffffffffffff1663874fc5f860008b6040518363ffffffff167c0100000000000000000000000000000000000000000000000000000000028152600401808315151515815260200182815260200192505050600060405180830381600087803b1515610d3457600080fd5b6102c65a03f11515610d4557600080fd5b505050610d678b73eeeeeeeeeeeeeeeeeeeeeeeeeeeeeeeeeeeeeeee8b6102d4565b92503373ffffffffffffffffffffffffffffffffffffffff166108fc849081150290604051600060405180830381858888f193505050501515610da957600080fd5b610f37565b8a9650600260008c73ffffffffffffffffffffffffffffffffffffffff1673ffffffffffffffffffffffffffffffffffffffff16815260200190815260200160002060009054906101000a900473ffffffffffffffffffffffffffffffffffffffff1694508673ffffffffffffffffffffffffffffffffffffffff1663dd62ed3e33306000604051602001526040518363ffffffff167c0100000000000000000000000000000000000000000000000000000000028152600401808373ffffffffffffffffffffffffffffffffffffffff1673ffffffffffffffffffffffffffffffffffffffff1681526020018273ffffffffffffffffffffffffffffffffffffffff1673ffffffffffffffffffffffffffffffffffffffff16815260200192505050602060405180830381600087803b1515610eea57600080fd5b6102c65a03f11515610efb57600080fd5b5050506040518051905090508881141515610f1557600080fd5b610f348b73eeeeeeeeeeeeeeeeeeeeeeeeeeeeeeeeeeeeeeee8b6102d4565b92505b5b5050505050505093925050505600a165627a7a72305820658064412afa3b1efde644f20cfbef6547a3428a2e81f67f5282da37ae07c6c50029",
  "source": "// pragma solidity 0.4.17;\n\n// import \"./Reserve.sol\";\n// import {TestToken} from \"./TestToken.sol\";\n\n// contract Exchange {\n//     address public owner;\n//     address public constant ETH_ADDRESS =\n//         0xeeeeeeeeeeeeeeeeeeeeeeeeeeeeeeeeeeeeeeee;\n//     address public constant DEFAULT_ADDRESS =\n//         0x0000000000000000000000000000000000000000;\n//     mapping(address => address) public listReserve;\n//     uint256 private constant inWei = 10**18;\n//     bool public trade = true;\n\n//     function Exchange() public {\n//         owner = msg.sender;\n//     }\n\n//     function addReserve(\n//         address _reserve,\n//         address _token,\n//         bool _isAdd\n//     ) public onlyOwner returns (bool) {\n//         if (_isAdd) {\n//             listReserve[_token] = _reserve;\n//             return true;\n//         } else {\n//             delete listReserve[_token];\n//             return true;\n//         }\n//     }\n\n//     function getExchangeRate(\n//         address _srcToken,\n//         address _destToken,\n//         uint256 _srcAmmount\n//     ) public view returns (uint256) {\n//         //if _srcToken = ETH => buy token\n//         if (_srcToken == ETH_ADDRESS) {\n//             Reserve re = Reserve(listReserve[_destToken]);\n//             return re.getExchangeRate(true, _srcAmmount);\n//         }\n//         //else if _destToken = ETH => sell token\n//         else if (_destToken == ETH_ADDRESS) {\n//             re = Reserve(listReserve[_srcToken]);\n//             return re.getExchangeRate(false, _srcAmmount);\n//         }\n//         //else exchange token to token\n//         else {\n//             Reserve reSrc = Reserve(listReserve[_srcToken]);\n//             uint256 weiRecieved = reSrc.getExchangeRate(false, _srcAmmount);\n//             Reserve reDest = Reserve(listReserve[_destToken]);\n//             return reDest.getExchangeRate(true, weiRecieved);\n//         }\n//     }\n\n//     function() public payable {}\n\n//     function exchangeToken(\n//         address _srcToken,\n//         address _destToken,\n//         uint256 _srcAmmount\n//     ) public payable onlyTradable {\n//         TestToken srcTokenContract;\n//         TestToken destTokenContract;\n//         Reserve srcReserve;\n//         Reserve destReserve;\n//         uint256 weiRecieved;\n//         uint256 tokenReceived;\n\n//         //if _srcToken = ETH => buy token\n\n//         if (_srcToken == ETH_ADDRESS) {\n//             require(_srcAmmount == msg.value);\n//             destTokenContract = TestToken(_destToken);\n//             destReserve = Reserve(listReserve[_destToken]);\n//             destReserve.exchange.value(msg.value)(true, _srcAmmount);\n//             tokenReceived = getExchangeRate(\n//                 ETH_ADDRESS,\n//                 _destToken,\n//                 _srcAmmount\n//             );\n//             // destTokenContract.transfer(msg.sender, tokenReceived);\n//         } else if (_destToken == ETH_ADDRESS) {\n//             //else if _destToken = ETH => sell token\n\n//             srcTokenContract = TestToken(_srcToken);\n//             srcReserve = Reserve(listReserve[_srcToken]);\n\n//             srcTokenContract.transferFrom(\n//                 msg.sender,\n//                 address(this),\n//                 _srcAmmount\n//             );\n//             srcTokenContract.approve(address(srcReserve), _srcAmmount);\n\n//             srcReserve.exchange(false, _srcAmmount);\n//             weiRecieved = getExchangeRate(_srcToken, ETH_ADDRESS, _srcAmmount);\n//             (msg.sender).transfer(weiRecieved);\n//         } else {\n//             //else exchange token to token\n//             //sell token\n//             srcTokenContract = TestToken(_srcToken);\n//             srcReserve = Reserve(listReserve[_srcToken]);\n\n//             srcTokenContract.transferFrom(msg.sender, this, _srcAmmount);\n//             srcTokenContract.approve(address(srcReserve), _srcAmmount);\n//             srcReserve.exchange(false, _srcAmmount);\n//             weiRecieved = getExchangeRate(_srcToken, ETH_ADDRESS, _srcAmmount);\n\n//             //buy token\n//             destTokenContract = TestToken(_destToken);\n//             destReserve = Reserve(listReserve[_destToken]);\n\n//             destReserve.exchange.value(weiRecieved)(true, weiRecieved);\n//             tokenReceived = getExchangeRate(\n//                 ETH_ADDRESS,\n//                 _destToken,\n//                 weiRecieved\n//             );\n//             destTokenContract.transfer(msg.sender, tokenReceived);\n//         }\n//     }\n\n//     function setTradable(bool _flag) public onlyOwner {\n//         trade = _flag;\n//     }\n\n//     modifier onlyOwner() {\n//         require(msg.sender == owner);\n//         _;\n//     }\n\n//     modifier onlyTradable() {\n//         require(trade == true);\n//         _;\n//     }\n// }\n\npragma solidity 0.4.17;\n\nimport \"./Reserve.sol\";\nimport {TestToken} from \"./TestToken.sol\";\n\ncontract Exchange {\n    address public owner;\n    address public constant ETH_ADDRESS =\n        0xeeeeeeeeeeeeeeeeeeeeeeeeeeeeeeeeeeeeeeee;\n    address public constant DEFAULT_ADDRESS =\n        0x0000000000000000000000000000000000000000;\n    mapping(address => uint256) spendingReturn;\n    mapping(address => address) listReserve;\n\n    function Exchange() public {\n        owner = msg.sender;\n    }\n\n    function addReserve(\n        address _reserve,\n        address _token,\n        bool _isAdd\n    ) public returns (bool) {\n        if (_isAdd) {\n            listReserve[_token] = _reserve;\n            return true;\n        } else {\n            delete listReserve[_token];\n            return true;\n        }\n    }\n\n    function getExchangeRate(\n        address _srcToken,\n        address _destToken,\n        uint256 _srcAmmount\n    ) public returns (uint256) {\n        //if _srcToken = ETH => buy token\n        if (_srcToken == ETH_ADDRESS) {\n            Reserve re = Reserve(listReserve[_destToken]);\n            return re.getExchangeRate(true, _srcAmmount);\n        }\n        //else if _destToken = ETH => sell token\n        else if (_destToken == ETH_ADDRESS) {\n            re = Reserve(listReserve[_srcToken]);\n            return re.getExchangeRate(false, _srcAmmount);\n        }\n        //else exchange token to token\n        else {\n            Reserve reSrc = Reserve(listReserve[_srcToken]);\n            uint256 ethRecieved = reSrc.getExchangeRate(false, _srcAmmount);\n            Reserve reDest = Reserve(listReserve[_destToken]);\n            return reDest.getExchangeRate(true, ethRecieved);\n        }\n    }\n\n    function exchangeToken(\n        address _srcToken,\n        address _destToken,\n        uint256 _srcAmmount\n    ) public payable returns (uint256) {\n        TestToken srcTokenContract;\n        TestToken destTokenContract;\n        Reserve srcReserve;\n        Reserve destReserve;\n        uint256 ethRecieved;\n        uint256 tokenReceived;\n\n        //if _srcToken = ETH => buy token\n\n        if (_srcToken == ETH_ADDRESS) {\n            require(_srcAmmount == msg.value);\n            destTokenContract = TestToken(_destToken);\n            destReserve = Reserve(listReserve[_destToken]);\n            destReserve.exchange.value(msg.value)(true, _srcAmmount);\n            tokenReceived = getExchangeRate(\n                ETH_ADDRESS,\n                _destToken,\n                _srcAmmount\n            );\n            // destTokenContract.transfer(msg.sender, tokenReceived);\n        } else if (_destToken == ETH_ADDRESS) {\n            //else if _destToken = ETH => sell token\n\n            srcTokenContract = TestToken(_srcToken);\n            srcReserve = Reserve(listReserve[_srcToken]);\n\n            srcTokenContract.transferFrom(msg.sender, this, _srcAmmount);\n            srcTokenContract.approve(address(srcReserve), _srcAmmount);\n            srcReserve.exchange(false, _srcAmmount);\n            ethRecieved = getExchangeRate(_srcToken, ETH_ADDRESS, _srcAmmount);\n            (msg.sender).transfer(ethRecieved);\n        } else {\n            //else exchange token to token\n            //sell token\n            srcTokenContract = TestToken(_srcToken);\n            srcReserve = Reserve(listReserve[_srcToken]);\n            uint256 approvedAllowence = srcTokenContract.allowance(\n                msg.sender,\n                this\n            );\n            require(approvedAllowence == _srcAmmount);\n            // srcTokenContract.transferFrom(msg.sender, this, _srcAmmount); //  transfer directly to reserve contract\n            // srcTokenContract.approve(address(srcReserve), _srcAmmount);\n            // srcReserve.exchange(false, _srcAmmount);\n            ethRecieved = getExchangeRate(_srcToken, ETH_ADDRESS, _srcAmmount);\n\n            //buy token\n            // destTokenContract = TestToken(_destToken);\n            // destReserve = Reserve(listReserve[_destToken]);\n            // destReserve.exchange.value(ethRecieved)(true, ethRecieved);\n            // tokenReceived = getExchangeRate(\n            //     ETH_ADDRESS,\n            //     _destToken,\n            //     ethRecieved\n            // );\n            // destTokenContract.transfer(msg.sender, tokenReceived);\n        }\n    }\n}\n",
  "sourcePath": "/Users/dungpham/Desktop/BDP306x_dungptse63086/capstone_blc/contract/contracts/Exchange.sol",
  "compiler": {
    "name": "solc",
    "version": "0.4.17+commit.bdeb9e52.Emscripten.clang"
  },
  "schemaVersion": "3.4.10",
  "updatedAt": "2022-11-18T18:32:37.032Z",
  "networkType": "ethereum",
  "devdoc": {
    "methods": {}
  },
  "userdoc": {
    "methods": {}
  }
}