{
  "contractName": "Reserve",
  "abi": [
    {
      "constant": true,
      "inputs": [],
      "name": "sellRate",
      "outputs": [
        {
          "name": "",
          "type": "uint256"
        }
      ],
      "payable": false,
      "stateMutability": "view",
      "type": "function"
    },
    {
      "constant": true,
      "inputs": [],
      "name": "supportToken",
      "outputs": [
        {
          "name": "",
          "type": "address"
        }
      ],
      "payable": false,
      "stateMutability": "view",
      "type": "function"
    },
    {
      "constant": true,
      "inputs": [],
      "name": "owner",
      "outputs": [
        {
          "name": "",
          "type": "address"
        }
      ],
      "payable": false,
      "stateMutability": "view",
      "type": "function"
    },
    {
      "constant": true,
      "inputs": [],
      "name": "ETH_ADDRESS",
      "outputs": [
        {
          "name": "",
          "type": "address"
        }
      ],
      "payable": false,
      "stateMutability": "view",
      "type": "function"
    },
    {
      "constant": true,
      "inputs": [],
      "name": "funds",
      "outputs": [
        {
          "name": "ethStored",
          "type": "uint256"
        },
        {
          "name": "tokenStored",
          "type": "uint256"
        }
      ],
      "payable": false,
      "stateMutability": "view",
      "type": "function"
    },
    {
      "constant": true,
      "inputs": [],
      "name": "buyRate",
      "outputs": [
        {
          "name": "",
          "type": "uint256"
        }
      ],
      "payable": false,
      "stateMutability": "view",
      "type": "function"
    },
    {
      "inputs": [
        {
          "name": "_supportToken",
          "type": "address"
        }
      ],
      "payable": false,
      "stateMutability": "nonpayable",
      "type": "constructor"
    },
    {
      "constant": false,
      "inputs": [
        {
          "name": "token",
          "type": "address"
        },
        {
          "name": "amount",
          "type": "uint256"
        },
        {
          "name": "destAddress",
          "type": "address"
        }
      ],
      "name": "withdrawFunds",
      "outputs": [],
      "payable": false,
      "stateMutability": "nonpayable",
      "type": "function"
    },
    {
      "constant": false,
      "inputs": [
        {
          "name": "_buyRate",
          "type": "uint256"
        },
        {
          "name": "_sellRate",
          "type": "uint256"
        }
      ],
      "name": "setExchangeRates",
      "outputs": [],
      "payable": false,
      "stateMutability": "nonpayable",
      "type": "function"
    },
    {
      "constant": true,
      "inputs": [
        {
          "name": "_isBuy",
          "type": "bool"
        },
        {
          "name": "_srcAmount",
          "type": "uint256"
        }
      ],
      "name": "getExchangeRate",
      "outputs": [
        {
          "name": "",
          "type": "uint256"
        }
      ],
      "payable": false,
      "stateMutability": "view",
      "type": "function"
    },
    {
      "constant": true,
      "inputs": [],
      "name": "getToken",
      "outputs": [
        {
          "name": "",
          "type": "address"
        }
      ],
      "payable": false,
      "stateMutability": "view",
      "type": "function"
    },
    {
      "constant": true,
      "inputs": [
        {
          "name": "_srcAmount",
          "type": "uint256"
        }
      ],
      "name": "getTotalByRate",
      "outputs": [
        {
          "name": "",
          "type": "uint256"
        }
      ],
      "payable": false,
      "stateMutability": "view",
      "type": "function"
    },
    {
      "constant": false,
      "inputs": [
        {
          "name": "_isBuy",
          "type": "bool"
        },
        {
          "name": "_srcAmount",
          "type": "uint256"
        }
      ],
      "name": "exchange",
      "outputs": [],
      "payable": true,
      "stateMutability": "payable",
      "type": "function"
    }
  ],
  "bytecode": "0x6060604052600a600455600a600555341561001957600080fd5b6040516020806109068339810160405280805190602001909190505033600260006101000a81548173ffffffffffffffffffffffffffffffffffffffff021916908373ffffffffffffffffffffffffffffffffffffffff16021790555080600360006101000a81548173ffffffffffffffffffffffffffffffffffffffff021916908373ffffffffffffffffffffffffffffffffffffffff1602179055505061083f806100c76000396000f300606060405236156100b8576000357c0100000000000000000000000000000000000000000000000000000000900463ffffffff16806321df0da7146100bd57806347c6b45e146101125780636217229b1461017357806377ed0ad61461019c578063845ad813146101de578063874fc5f8146102335780638da5cb5b14610256578063a734f06e146102ab578063c89f2ce414610300578063ca78551f14610330578063e637a44b14610367578063fc37987b14610393575b600080fd5b34156100c857600080fd5b6100d06103bc565b604051808273ffffffffffffffffffffffffffffffffffffffff1673ffffffffffffffffffffffffffffffffffffffff16815260200191505060405180910390f35b341561011d57600080fd5b610171600480803573ffffffffffffffffffffffffffffffffffffffff1690602001909190803590602001909190803573ffffffffffffffffffffffffffffffffffffffff169060200190919050506103e6565b005b341561017e57600080fd5b610186610447565b6040518082815260200191505060405180910390f35b34156101a757600080fd5b6101c86004808035151590602001909190803590602001909190505061044d565b6040518082815260200191505060405180910390f35b34156101e957600080fd5b6101f1610475565b604051808273ffffffffffffffffffffffffffffffffffffffff1673ffffffffffffffffffffffffffffffffffffffff16815260200191505060405180910390f35b6102546004808035151590602001909190803590602001909190505061049b565b005b341561026157600080fd5b610269610724565b604051808273ffffffffffffffffffffffffffffffffffffffff1673ffffffffffffffffffffffffffffffffffffffff16815260200191505060405180910390f35b34156102b657600080fd5b6102be61074a565b604051808273ffffffffffffffffffffffffffffffffffffffff1673ffffffffffffffffffffffffffffffffffffffff16815260200191505060405180910390f35b341561030b57600080fd5b610313610762565b604051808381526020018281526020019250505060405180910390f35b341561033b57600080fd5b6103516004808035906020019091905050610774565b6040518082815260200191505060405180910390f35b341561037257600080fd5b6103916004808035906020019091908035906020019091905050610782565b005b341561039e57600080fd5b6103a661080d565b6040518082815260200191505060405180910390f35b6000600360009054906101000a900473ffffffffffffffffffffffffffffffffffffffff16905090565b600260009054906101000a900473ffffffffffffffffffffffffffffffffffffffff1673ffffffffffffffffffffffffffffffffffffffff163373ffffffffffffffffffffffffffffffffffffffff1614151561044257600080fd5b505050565b60055481565b600082610467576005548281151561046157fe5b0461046d565b81600454025b905092915050565b600360009054906101000a900473ffffffffffffffffffffffffffffffffffffffff1681565b600080600360009054906101000a900473ffffffffffffffffffffffffffffffffffffffff16915083156105b3578173ffffffffffffffffffffffffffffffffffffffff1663a9059cbb307c01dac74463a989f64e994f5550c7dc97ba90ad8b8800000000000000006000604051602001526040518363ffffffff167c0100000000000000000000000000000000000000000000000000000000028152600401808373ffffffffffffffffffffffffffffffffffffffff1673ffffffffffffffffffffffffffffffffffffffff16815260200182815260200192505050602060405180830381600087803b151561059157600080fd5b6102c65a03f115156105a257600080fd5b50505060405180519050905061071e565b600360009054906101000a900473ffffffffffffffffffffffffffffffffffffffff1673ffffffffffffffffffffffffffffffffffffffff166323b872dd3330866000604051602001526040518463ffffffff167c0100000000000000000000000000000000000000000000000000000000028152600401808473ffffffffffffffffffffffffffffffffffffffff1673ffffffffffffffffffffffffffffffffffffffff1681526020018373ffffffffffffffffffffffffffffffffffffffff1673ffffffffffffffffffffffffffffffffffffffff1681526020018281526020019350505050602060405180830381600087803b15156106b457600080fd5b6102c65a03f115156106c557600080fd5b50505060405180519050503373ffffffffffffffffffffffffffffffffffffffff166108fc600554858115156106f757fe5b049081150290604051600060405180830381858888f19350505050151561071d57600080fd5b5b50505050565b600260009054906101000a900473ffffffffffffffffffffffffffffffffffffffff1681565b73eeeeeeeeeeeeeeeeeeeeeeeeeeeeeeeeeeeeeeee81565b60008060000154908060010154905082565b600060045482029050919050565b600260009054906101000a900473ffffffffffffffffffffffffffffffffffffffff1673ffffffffffffffffffffffffffffffffffffffff163373ffffffffffffffffffffffffffffffffffffffff161415156107de57600080fd5b600082101580156107f0575060008110155b15156107fb57600080fd5b81600481905550806005819055505050565b600454815600a165627a7a72305820f1f0cbf6575bf7fc66ea5ebb8a89a0fd3f8dbc02acd682d1769797e60dbb26c70029",
  "source": "// pragma solidity 0.4.17;\n\n// import {TestToken} from \"./TestToken.sol\";\n\n// contract Reserve {\n//     struct Fund {\n//         uint256 ethStored;\n//         uint256 tokenStored;\n//     }\n\n//     Fund public funds;\n\n//     address public owner;\n//     uint256 public decimals;\n//     uint256 private constant inWei = 10**18;\n//     address public supportToken;\n//     uint256 public buyRate = 10;\n//     uint256 public sellRate = 10;\n//     address private constant ETH_ADDRESS =\n//         0xeeeeeeeeeeeeeeeeeeeeeeeeeeeeeeeeeeeeeeee;\n//     bool public trade = true;\n\n//     function Reserve(address _supportToken) public {\n//         owner = msg.sender;\n//         supportToken = _supportToken;\n//         TestToken tokenContract = TestToken(supportToken);\n//         decimals = tokenContract.decimals();\n//         funds.ethStored = 0;\n//         funds.tokenStored = 10000000 * (10**decimals);\n//     }\n\n//     function() public payable {\n//         funds.ethStored += msg.value;\n//     }\n\n//     function withdrawFunds(\n//         address _token,\n//         uint256 _amount,\n//         address _destAddress\n//     ) public onlyOwner {\n//         if (_token == ETH_ADDRESS) {\n//             require(_amount <= funds.ethStored);\n//             _destAddress.transfer(_amount);\n//             funds.ethStored -= _amount;\n//         }\n//         if (_token == supportToken) {\n//             require(_amount <= funds.tokenStored);\n//             TestToken tokenContract = TestToken(supportToken);\n//             tokenContract.transfer(_destAddress, _amount);\n//             funds.tokenStored -= _amount;\n//         }\n//     }\n\n//     function setExchangeRates(uint256 _buyRate, uint256 _sellRate)\n//         public\n//         onlyOwner\n//     {\n//         buyRate = _buyRate;\n//         sellRate = _sellRate;\n//     }\n\n//     function getExchangeRate(bool _isBuy, uint256 _srcAmount)\n//         public\n//         view\n//         returns (uint256)\n//     {\n//         if (_isBuy) {\n//             if (funds.tokenStored > 0) {\n//                 return (((_srcAmount * (10**decimals) * (10**decimals)) /\n//                     inWei) / buyRate);\n//             }\n//             return 0;\n//         } else {\n//             if (funds.ethStored > 0) {\n//                 return\n//                     ((_srcAmount * (10**decimals) * inWei)) /\n//                     (sellRate * (10**decimals));\n//             }\n//             return 0;\n//         }\n//     }\n\n//     function toDecimal(uint256 _value) private view returns (uint256) {\n//         return _value * (10**decimals);\n//     }\n\n//     function exchange(bool _isBuy, uint256 _srcAmount)\n//         public\n//         payable\n//         onlyTradable\n//     {\n//         TestToken tokenContract = TestToken(supportToken);\n//         uint256 transferAmount;\n//         if (_isBuy) {\n//             require(_srcAmount == msg.value);\n//             transferAmount = getExchangeRate(true, msg.value);\n//             //check enough token to send back\n//             // require(transferAmount != 0 && funds.tokenS tored >= transferAmount);\n//             tokenContract.transfer(msg.sender, msg.value);\n//             // tokenContract.transfer(msg.sender, transferAmount);\n//             // funds.tokenStored -= transferAmount;\n//             // funds.ethStored += msg.value;\n//         } else {\n//             tokenContract.transferFrom(msg.sender, address(this), _srcAmount);\n//             transferAmount = getExchangeRate(false, _srcAmount);\n//             //check enough ether to send back\n//             require(transferAmount != 0 && funds.ethStored >= transferAmount);\n//             msg.sender.transfer(transferAmount);\n//             funds.tokenStored += _srcAmount;\n//             funds.ethStored -= transferAmount;\n//         }\n//     }\n\n//     function setTradable(bool _flag) public onlyOwner {\n//         trade = _flag;\n//     }\n\n//     modifier onlyOwner() {\n//         require(msg.sender == owner);\n//         _;\n//     }\n\n//     modifier onlyTradable() {\n//         require(trade == true);\n//         _;\n//     }\n// }\n\npragma solidity 0.4.17;\n\n// import {} \"./TestToken.sol\";\nimport {TestToken} from \"./TestToken.sol\";\n\ncontract Reserve {\n    // using SafeMath for uint;\n    struct Fund {\n        uint256 ethStored;\n        uint256 tokenStored;\n    }\n\n    Fund public funds;\n\n    address public owner;\n    address public supportToken;\n    uint256 public buyRate = 10;\n    uint256 public sellRate = 10;\n    address public constant ETH_ADDRESS =\n        0xeeeeeeeeeeeeeeeeeeeeeeeeeeeeeeeeeeeeeeee;\n\n    function Reserve(address _supportToken) public {\n        owner = msg.sender;\n        supportToken = _supportToken;\n    }\n\n    function withdrawFunds(\n        address token,\n        uint256 amount,\n        address destAddress\n    ) public onlyOwner {}\n\n    function setExchangeRates(uint256 _buyRate, uint256 _sellRate)\n        public\n        onlyOwner\n    {\n        require(_buyRate >= 0 && _sellRate >= 0);\n        buyRate = _buyRate;\n        sellRate = _sellRate;\n    }\n\n    function getExchangeRate(bool _isBuy, uint256 _srcAmount)\n        public\n        view\n        returns (uint256)\n    {\n        return _isBuy ? buyRate * _srcAmount : _srcAmount / sellRate;\n    }\n// \n    function getToken() public view returns (TestToken) {\n        return TestToken(supportToken);\n    }\n\n    function getTotalByRate(uint256 _srcAmount) public view returns (uint256) {\n        return _srcAmount * buyRate;\n    }\n\n    function exchange(bool _isBuy, uint256 _srcAmount) public payable {\n        TestToken tokenContract = TestToken(supportToken);\n        if (_isBuy) {\n            // bool result = TestToken(supportToken).transfer(this, _srcAmount * buyRate);\n            bool result = tokenContract.transfer(this, 50000000000000000000000000000000000000000000000000000000000000000000);\n            if (!result) {\n                revert;\n            }\n        } else {\n            TestToken(supportToken).transferFrom(msg.sender, this, _srcAmount);\n            (msg.sender).transfer(((_srcAmount) / sellRate));\n        }\n    }\n\n    modifier onlyOwner() {\n        require(msg.sender == owner);\n        _;\n    }\n}\n",
  "sourcePath": "/Users/dungpham/Desktop/BDP306x_dungptse63086/capstone_blc/contract/contracts/Reserve.sol",
  "compiler": {
    "name": "solc",
    "version": "0.4.17+commit.bdeb9e52.Emscripten.clang"
  },
  "schemaVersion": "3.4.10",
  "updatedAt": "2022-11-18T18:32:37.029Z",
  "networkType": "ethereum",
  "devdoc": {
    "methods": {}
  },
  "userdoc": {
    "methods": {}
  }
}